:100B9D007D737C00ED1D70011C144C70F7EF1F7000
:060BAD00011E144E70EA67
:010BB300221F
:1008A70046696E6765727072696E742054657374F9
:1008B700005365617263682066696E676572200020
:1008C7004164642066696E676572202020200044B9
:1008D700656C65746520616C6C202020200045786C
:1008E70069742020202020202020202000202A009A
:0308F700202000BE
:100B480041003300410032004200340000420030CE
:020B580000009B
:100003007590FF1209C97BFF7A0879A7E4FD7F0188
:1000130012084F120BB4120BC87F887E13120B9D6C
:100023001208FA7FE87E03120B9D7BFF7A0879B8EA
:100033007D01E4FF12084F7BFF7A0879C77D017FBA
:100043000112084F7BFF7A0879D67D017F021208DF
:100053004F7BFF7A0879E57D017F0312084F9000FB
:1000630032E0FF3395E0FEEF4E70137BFF7A0879A1
:10007300F4FDFF12084F7BFF7A0879F78020900088
:1000830032E0FF3395E0FEEF64014E70207BFF7A90
:100093000879F7FDFF12084F7BFF7A0879F4E4FD36
:1000A3007F0112084F7BFF7A0879F7802D90003289
:1000B300E0FF3395E0FEEF64024E702D7BFF7A087C
:1000C30079F7FDFF12084F7BFF7A0879F7E4FD7F8C
:1000D3000112084F7BFF7A0879F4E4FD7F021208CE
:1000E3004F7BFF7A0879F7803A900032E0FF33952F
:1000F300E0FEEF64034E70327BFF7A0879F7FDFF71
:1001030012084F7BFF7A0879F7E4FD7F0112084F4D
:100113007BFF7A0879F7E4FD7F0212084F7BFF7AB1
:100123000879F4E4FD7F0312084F20A2577F057E70
:1001330000120B9D20A24D30A2FD900032E014600E
:100143001214602F2402703C9000337401F01205E6
:10015300D480319000337401F01207F0EF4E600841
:10016300E4900033F01205D4900033E060161201DE
:10017300FF8011E4900033F01205D4900033E06067
:100183000312078920A4317F057E00120B9D20A452
:100193002730A4FD900032E0FF3395E0FED3EF94C7
:1001A30003EE648094805010E004F0E0FF3395E0A8
:1001B300FEEF64044E7001F030A60302002D7F05AC
:1001C3007E00120B9D20A62330A6FD900032E03363
:1001D30095E0C3648094804012E014F0E0FF33950F
:1001E300E0FEBEFF06BFFF037403F07F0A7E00122A
:0C01F3000B9DE4900030F0A3F002002D02
:100BB400759850E4F587758920758DFD758BFDD288
:040BC4008ED2AF22FC
:080BD1008F993099FDC29922B1
:070BD9003098FDC298AF99AE
:010BE00022F2
:090BC800D2A4D2A6D2A2D2A0222E
:0509FB0090002BEFF05D
:100A0000E4A3F0F090002BE0FFA3E0C39F501AC2D4
:100A1000A67FC87E00120B9DD2A67FC87E00120B57
:090A20009D90002CE004F080DB45
:010A290022AA
:100B6700C2B5C2B6C2B48F807F017E00120B9DD280
:0B0B7700B47F017E00120B9DC2B4226F
:100B8200D2B5C2B6C2B48F807F017E00120B9DD255
:0B0B9200B47F017E00120B9DC2B42254
:1009C900D2B77F34120B677F057E00120B9D7F30F3
:1009D900120B677F057E00120B9D7F0C120B677F40
:1009E900057E00120B9D7F01120B677F057E0002B9
:0209F9000B9D54
:0B084F0090002BEBF0A3EAF0A3E9F00F
:10085A00EFFB7A0070047F80801CEB64014A70040D
:10086A007F908012EB64024A70047F888008EB64F0
:10087A00034A70027F98EF2DFF120B6790002BE05E
:10088A00FBA3E0FAA3E0F912070AFF600F120B823A
:0C089A0090002CE475F00112072380E0B0
:0108A600222F
:1003C6002020204164642066696E676572202020C3
:1003D600002020204944202069732020202020204E
:1003E600200020506C65617365202066696E676524
:1003F60072200020202020202020202020202020C5
:10040600202020005375636365737366756C2065E1
:100416006E74727900202020547279202061676101
:10042600696E202020002020202049442069732066
:1004360020202020202000205365617263682073ED
:10044600756363657373002053656172636820206A
:100456006661696C65642000202020456D707479A2
:100466002020616C6C2020200020202059657320FC
:100476006F72206E6F203F202000202020456D7077
:100486007479696E67202020202000202020416C8E
:100496006C20656D70747920202020004C6F61649B
:1004A600696E672E2E2E00446F636B696E6720207F
:1004B6006661696C75726500446F636B696E67206F
:1004C60020737563636573730001000713000000F2
:1004D60000001BEF01FFFFFFFF0100030100050104
:1004E60000031D00210100080401000003E700F8D5
:1004F60001000804010000001300210100040201AC
:1005060000080100040202000901000305000901B8
:0505160000030D0011BF
:0C0B5A004900200100060601000B0019F4
:10098F00E490002EF0A3F090002EE0FEA3E0FFC352
:10099F009406EE64809480502074D92FF5827404ED
:1009AF003EF583E493FF120BD190002FE004F0701B
:0909BF00D690002EE004F080CE79
:0109C800220C
:10094B00E490002AF0A3F012098FE490002AF0A3A0
:10095B00F090002AE0FEA3E0FFC3940AEE648094BB
:10096B0080502074CF2FF58274043EF583E493FFFF
:10097B00120BD190002BE004F070D690002AE0040B
:03098B00F080CE2B
:01098E002246
:050A2A0090002CEFF02C
:100A2F00E4A3F090002CE0FFA3E0C39F501A120B39
:100A3F00D990002DE02400F582E43400F583EFF027
:080A4F0090002DE004F080DBB3
:010A5700227C
:100A580012098FE490002BF090002BE0FFC394065E
:100A6800748094805011EF9004DF93FF120BD190A3
:070A7800002BE004F080E117
:010A7F002254
:100A800012098FE490002BF090002BE0FFC3940735
:100A9000748094805011EF90050193FF120BD19058
:070AA000002BE004F080E1EF
:010AA700222C
:100AA80012098FE4900029F0900029E0FFC3940711
:100AB800748094805011EF90050893FF120BD19029
:070AC8000029E004F080E1C9
:010ACF002204
:100AD00012098FE490002BF090002BE0FFC3940BE1
:100AE000748094805011EF9004EB93FF120BD1901F
:070AF000002BE004F080E19F
:010AF70022DC
:100AF80012098FE4900029F0900029E0FFC39406C2
:100B0800748094805011EF90050F93FF120BD190D1
:070B18000029E004F080E178
:010B1F0022B3
:100B200012098FE490002AF090002AE0FFC3940697
:100B3000748094805011EF90051593FF120BD190A3
:070B4000002AE004F080E14F
:010B4700228B
:04051B00AB07AA067A
:10051F0090002912075800000000EA900025F0EB28
:10052F00A3F0E490002DF090002DE0C394077480A9
:10053F0094805039900029E0F8A3E0F9A3E0FAA3E2
:10054F00E0FBA3E02420F582E43400F583E0FFE430
:10055F00FCFDFEEB2FFFEE3AFEED39FDEC38FC9083
:10056F00002912074C90002DE004F080BA9000296A
:10057F00A3A3E0FEA3E4FFE4FDFC78081207399083
:10058F000027EFF0900029E0FCA3E0FDA3E0FEA31D
:10059F00E0FF900028EFF012098FE490002DF0900B
:1005AF00002DE0FFC3940974809480501774202F9E
:1005BF00F582E43400F583E0FF120BD190002DE0BB
:0405CF0004F080DBD9
:0105D3002205
:1007F000900029E4F0A304F0E4A3F012098FE49040
:10080000002BF090002BE0FFC3940674809480507E
:1008100011EF9004E593FF120BD190002BE004F050
:1008200080E19000097401F07F0E120A2A900009FD
:10083000E07013A3E0FEA3E07C002400FFEC3E90F8
:0E0840000029F0A3EFF0900029E0FEA3E0FFF6
:01084E002287
:1001FF007F01120B677FE87E03120B9D7BFF7A0353
:10020F0079C6E4FD7F0112084F7BFF7A0379D7E4AB
:10021F00FD7F0212084F20A0127F057E00120B9D5A
:10022F0020A00830A0030203C580F820A6317F0567
:10023F007E00120B9D20A62730A6FD900034E0B45F
:10024F00030FA3E0B4E80A900034E4F0A304F080B5
:10025F000E900035E004F07006900034E004F020BA
:10026F00A4337F057E00120B9D20A42930A4FD909E
:10027F000034E07004A3E06401700C900034740348
:10028F00F0A374E8F0800E900035E024FFF09000AA
:10029F0034E034FFF030A20302020B7F057E001220
:1002AF000B9D30A20302020B30A2FD7BFF7A037974
:1002BF00E8E4FD7F0112084F7BFF7A0379F9E4FD33
:1002CF007F0212084F20A00302020B20A0127F050D
:1002DF007E00120B9D20A00830A00302020B80F8B5
:1002EF00120A587F0C120A2A900009E070D77F6417
:1002FF00FE120B9D120A807F0C120A2A7BFF7A04D2
:10030F00790AE4FD7F0212084F7F011209FB7F106B
:10031F007E27120B9D7BFF7A04791BE4FD7F011270
:10032F00084F7BFF7A0379F9E4FD7F0212084F2013
:10033F00A0127F057E00120B9D20A00830A00302A3
:10034F00020B80F8120A587F0C120A2A900009E05B
:10035F0070DD7FC8FE120B9D7BFF7A04790AE4FDE6
:10036F007F0212084F7F207E4E120B9D7BFF7A0477
:10037F00792C7D057F0212084F120AA87F0C120AF2
:10038F002A120AF87F0C120A2A900034E0FEA3E02A
:10039F00FF12051B7F0C120A2A7F011209FB7FE84F
:1003AF007E03120B9D900035E004F0700690003430
:0703BF00E004F002020B2232
:1005D400E4900029F0A3F07BFF7A0379F9FDFF1280
:1005E400084F7BFF7A0379E8E4FD7F0112084F7B13
:1005F400FF7A0379F9E4FD7F0212084F7BFF7A0347
:1006040079F9E4FD7F0312084F120A587F0C120A8D
:100614002A900009E0705F7F64FE120B9D120A802D
:100624007F0C120A2A120AD07F10120A2A9000099B
:10063400E070317BFF7A04793DFD7F0212084F7F21
:10064400011209FB900033E0600D7590FE7F107E6F
:1006540027120B9D7590FF9000337401F07FB87ED4
:100664000B020B9D7BFF7A04794DE4FD7F02120897
:090674004F7F031209FB20A09046
:01067D00225A
:10078900E4900029F07BFF7A04795EFD7F0112086D
:100799004F7BFF7A04796FE4FD7F0212084F20A294
:1007A900427F057E00120B9D20A23830A2FD7BFFFF
:1007B9007A047980E4FD7F0212084F7F2C7E0112B2
:1007C9000B9D120B207F0C120A2A7BFF7A04799168
:1007D900E4FD7F0212084F7F107E27120B9D7F03D5
:0607E9000209FB20A0B88C
:0107EF0022E7
:1008FA00E4900029F090000904F07BFF7A0479A2C1
:10090A007D027F0212084F7F887E13120B9D7BFFA8
:10091A007A0479ADE4FD7F0212084F12094B7F0C6D
:10092A00120A2A900009E0700C7BFF7A0479BEFD56
:10093A007F0212084F7F887E13120B9D7F01020BE4
:01094A006745
:070BE100D2AFD2A8C28822A6
:0300000002067E77
:0C067E00787FE4F6D8FD7581070206C500
:10070A00BB010689828A83E0225002E722BBFE02ED
:09071A00E32289828A83E4932220
:10072300C5F0F8A3E028F0C5F0F8E5821582700261
:060733001583E038F022FE
:10073900E8600FECC313FCED13FDEE13FEEF13FF9E
:03074900D8F122C2
:0C074C00ECF0A3EDF0A3EEF0A3EFF02220
:10075800A8828583F0D083D08212076F12076F12A8
:10076800076F12076FE473E493A3C583C5F0C583CD
:10077800C8C582C8F0A3C583C5F0C583C8C582C8EB
:01078800224E
:10068A00020003E493A3F8E493A34003F68001F283
:10069A0008DFF48029E493A3F85407240CC8C33371
:1006AA00C4540F4420C8834004F456800146F6DF40
:1006BA00E4800B0102040810204080900B48E47E7D
:1006CA00019360BCA3FF543F30E509541FFEE49335
:1006DA00A360010ECF54C025E060A840B8E493A3FC
:1006EA00FAE493A3F8E493A3C8C582C8CAC583CA27
:1006FA00F0A3C8C582C8CAC583CADFE9DEE780BEDF
:010B6600008E
:00000001FF
